:100000000C9446000C94AB020C9461020C94170201
:100010000C94CD010C9483010C9439010C94DD00F7
:100020000C9465000C9465000C9465000C946500BC
:100030000C9465000C9465000C9465000C946500AC
:100040000C9465000C9465000C9465000C9465009C
:100050000C9465000C9465000C9465000C9465008C
:100060000C9465000C9465000C9414010C946500CC
:100070000C9465000C9465000C9465000C9465006C
:100080000C9465000C9465000C94650011241FBE4F
:10009000CFEFD0E1DEBFCDBF11E0A0E0B1E0E4EEF4
:1000A000F1E100E00BBF02C007900D92A230B10752
:1000B000D9F721E0A2E0B1E001C01D92AD39B2074D
:1000C000E1F70E94F5020C94F0080C94000013BCB8
:1000D000C7980895BF9AC79888E485BD85B58460A0
:1000E00085BD13BC0895FC01A281B3819C91892F29
:1000F00090E0268102C0959587952A95E2F7809534
:100100009095817008954091930150919401609170
:10011000950170919601E6E5F1E042835383648393
:10012000758321E0228795878487138680919301C8
:1001300090919401A0919501B09196018683978347
:10014000A087B1870E946A000E9467008BB3817FFD
:100150008BBB08950F931F9320916401309165012B
:10016000232B41F528EE33E03093550120935401C1
:10017000609300011092530100919301109194013A
:10018000209195013091960100934F0110935001F9
:10019000209351013093520190935701809356015F
:1001A00082E090E0662311F081E090E01F910F91D2
:1001B0000C9483001F910F9108951F920F920FB618
:1001C0000F9211242F933F938F939F930E9B15C0F3
:1001D0008CB59DB590939C0180939B018AB78F7ECF
:1001E0008ABF8AB780628ABF9F918F913F912F917A
:1001F0000F900FBE0F901F9018958CB59DB59093E2
:100200009A01809399018091990190919A0120918E
:100210009B0130919C01821B930B909398018093DA
:1002200097018AB78063DFCF1F920F920FB60F92AC
:1002300011248F939F93AF93BF93809193019091DB
:100240009401A0919501B09196010196A11DB11D57
:100250008093930190939401A0939501B09396019C
:10026000BF91AF919F918F910F900FBE0F901F90F4
:1002700018951F920F920FB60F9211240F931F9390
:100280002F933F934F935F936F937F938F939F939E
:10029000AF93BF938091930190919401A0919501A8
:1002A000B091960140918F01509190016091910120
:1002B000709192018C019D01041B150B260B370BCD
:1002C000B901A801423351056105710558F08093C9
:1002D0008F0190939001A0939101B093920181E0DE
:1002E00080938E01BF91AF919F918F917F916F917C
:1002F0005F914F913F912F911F910F910F900FBEE2
:100300000F901F9018951F920F920FB60F92112405
:100310000F931F932F933F934F935F936F937F930D
:100320008F939F93AF93BF9380919301909194018A
:10033000A0919501B091960140918A0150918B0155
:1003400060918C0170918D018C019D01041B150B36
:10035000260B370BB901A801423351056105710520
:1003600058F080938A0190938B01A0938C01B093F5
:100370008D0181E080938901BF91AF919F918F9111
:100380007F916F915F914F913F912F911F910F91AD
:100390000F900FBE0F901F9018951F920F920FB6DF
:1003A0000F9211240F931F932F933F934F935F93BB
:1003B0006F937F938F939F93AF93BF93809193019C
:1003C00090919401A0919501B09196014091850181
:1003D0005091860160918701709188018C019D0187
:1003E000041B150B260B370BB901A801423351052D
:1003F0006105710558F08093850190938601A09363
:100400008701B093880181E080938401BF91AF910F
:100410009F918F917F916F915F914F913F912F911C
:100420001F910F910F900FBE0F901F9018951F9264
:100430000F920FB60F9211240F931F932F933F9398
:100440004F935F936F937F938F939F93AF93BF93DC
:100450008091930190919401A0919501B0919601A2
:1004600040918001509181016091820170918301DE
:100470008C019D01041B150B260B370BB901A8013C
:10048000423351056105710558F0809380019093C6
:100490008101A0938201B093830181E080937F0169
:1004A000BF91AF919F918F917F916F915F914F918C
:1004B0003F912F911F910F910F900FBE0F901F90A2
:1004C00018951F920F920FB60F9211240F931F933E
:1004D0002F933F934F935F936F937F938F939F934C
:1004E000AF93BF938091930190919401A091950156
:1004F000B091960140917B0150917C0160917D010A
:1005000070917E018C019D01041B150B260B370B8E
:10051000B901A801423351056105710558F0809376
:100520007B0190937C01A0937D01B0937E0181E0DB
:1005300080937A01BF91AF919F918F917F916F913D
:100540005F914F913F912F911F910F910F900FBE8F
:100550000F901F9018951F920F920FB60F921124B3
:100560000F931F932F933F934F935F936F937F93BB
:100570008F939F93AF93BF93809193019091940138
:10058000A0919501B091960140917601509177012B
:1005900060917801709179018C019D01041B150B0C
:1005A000260B370BB901A8014233510561057105CE
:1005B00058F08093760190937701A0937801B093DF
:1005C000790181E080937501BF91AF919F918F91E7
:1005D0007F916F915F914F913F912F911F910F915B
:1005E0000F900FBE0F901F90189587B38F6087BB39
:1005F00010928B008BE080938A008AEF90E09093BA
:1006000087008093860080917D00806180937D00CB
:10061000A098A89AA19AA9988AB38E608ABB8BB336
:10062000817F8BBB0E946A0041E350E05093270119
:100630004093260120E330E03093290120932801E4
:1006400082E390E090932B0180932A0110922C0179
:100650008898909A50932E0140932D013093300149
:1006600020932F01909332018093310161E06093D8
:1006700033018998919A509312014093110130935C
:10068000140120931301909316018093150162E0E9
:10069000609317018A98929A509319014093180118
:1006A00030931B0120931A0190931D0180931C012C
:1006B00083E080931E018B98939A42E250E050931E
:1006C00035014093340121E230E03093370120932B
:1006D000360183E290E0909339018093380164E021
:1006E00060933A0114981C9A5093200140931F0183
:1006F00030932201209321019093240180932301C0
:1007000085E08093250115981D9A82B1866082B993
:1007100083B1897F83B9109A16981E9A8AB780632D
:100720008ABF89B7806489BF1EBC8EB583608EBDC9
:1007300010929C0110929B0110929A0110929901C3
:100740001092980110929701789401E066246394C6
:10075000712C92E0E92EF12C23E0C22ED12C30EF47
:10076000332E44E0442E58E0552E80909301909013
:100770009401A0909501B090960184E391E00E94CD
:100780007300882309F4F3C180910D0190910E014B
:10079000A0910F01B0911001A5019401281B390B04
:1007A0004A0B5B0BDA01C901883C9105A105B10533
:1007B00008F0E4C1D0E0C0E086E291E00E9473005E
:1007C000882309F4E8C18DE291E00E947300882338
:1007D00009F4E1C180910C0181110AC080920801E5
:1007E00090920901A0920A01B0920B0100930C01B2
:1007F0008091080190910901A0910A01B0910B012B
:10080000A5019401281B390B4A0B5B0BDA01C901C6
:10081000883B9B40A105B10508F0C8C110E081E10B
:1008200091E00E94730020900701882309F4C2C15F
:1008300088E191E00E947300882309F4BBC1211074
:100840000AC08092030190920401A0920501B09227
:1008500006010093070180910201811118C0809167
:10086000030190910401A0910501B0910601881A3D
:10087000990AAA0ABB0A48EB84164BE09406A10425
:10088000B10428F00093020111E0C3E0D0E08090B1
:10089000930190909401A0909501B0909601809161
:1008A000640190916501892B09F079C0C130D105AF
:1008B00091F480917201811112C0009372018091B4
:1008C000560190915701009709F08AC161E081E0DB
:1008D00090E00E94AA0080917201882349F08091E3
:1008E0005601909157018D7F892B11F4109272015E
:1008F0008091720181117BC180917301909174018B
:10090000009741F0909369018093680110927401FF
:100910001092730180916801909169018130910575
:1009200009F49CC108F470C18230910509F4C0C17A
:10093000039709F40EC280913D0190913E01A09170
:100940003F01B0914001A5019401281B390B4A0BCE
:100950005B0BDA01C90181339547A105B105B8F0F8
:100960008091680190916901019789F48091560105
:1009700090915701009709F028C2109269011092D6
:10098000680110923C0183E090E00E948300809215
:100990003D0190923E01A0923F01B09240018090B3
:1009A000930190909401A0909501B0909601809150
:1009B000460190914701A0914801B0914901A501DC
:1009C0009401281B390B4A0B5B0BDA01C9018436F1
:1009D0009105A105B10508F440C0189835E03A9595
:1009E000F1F70000189A45E34A95F1F700001898CE
:1009F0008091970190919801892B09F4EFC1609142
:100A000097017091980190E080E00E94F5072DEB2E
:100A100037E346E856E30E945B0820E030ED44E00F
:100A200057E40E945B080E94C6076C33710568F4A6
:100A300083B1866083B90093450180924101909211
:100A40004201A0924301B0924401809246019092EB
:100A50004701A0924801B092490180914501882345
:100A6000C1F08091410190914201A0914301B09168
:100A70004401881A990AAA0ABB0A58E8851653E164
:100A80009506A104B10428F083B1897F83B910923F
:100A900045018091930190919401A0919501B091AD
:100AA0009601989B9FC180934B0190934C01A0931A
:100AB0004D01B0934E0100934A01A99A80915401CF
:100AC00090915501019781F48091560190915701C1
:100AD0008130910509F0A1C1F0925701E0925601D1
:100AE00083E090E00E9483008090930190909401B5
:100AF000A0909501B09096018BB3817F8BBB8091C4
:100B00006001882309F4C8C180915C0190915D0166
:100B1000A0915E01B0915F01A5019401281B390BE2
:100B20004A0B5B0BDA01C9018C329140A105B1057A
:100B300008F48AC1809162019091630180925C0106
:100B400090925D01A0925E01B0925F0120916101DF
:100B5000211173C18130910538F08330910508F47B
:100B600064C1039709F4CDC10E94670066C18FE19B
:100B700091E00E947300811107CE1CCE80920D017E
:100B800090920E01A0920F01B092100100933C01CF
:100B9000C1E0D0E011CE10920C0110920801109229
:100BA000090110920A0110920B0138CE11E0C2E047
:100BB000D0E035CE222039F080910201882319F04F
:100BC00012E0C3E0D0E010920701109202011092EF
:100BD000030110920401109205011092060157CEF4
:100BE000029709F07CCE60E083E090E072CEC130E5
:100BF000D10509F48FCE809168019091690190939D
:100C000074018093730186CEC130D10599F480912F
:100C1000560190915701009731F461E081E090E036
:100C20000E94AA0088CE029709F085CE60E083E09A
:100C300090E0F6CF80913C0181117DCE229709F0A2
:100C40007ACE112309F477CE61E081E090E00E9432
:100C5000AA0070926901609268016DCE8091560180
:100C6000909157018230910509F065CEC330D105CE
:100C700081F4112309F45FCE909369018093680198
:100C800000933B0110923C0183E090E00E948300BE
:100C9000CDCF219709F04FCE60E083E090E00E9435
:100CA000AA00109269011092680110923B0143CE94
:100CB0008091640190916501892B09F070CEC33059
:100CC000D10571F5113079F4809156019091570159
:100CD000029709F030CE60E083E090E00E94AA0025
:100CE00010933B011AC0123009F025CE80913B01D0
:100CF000882309F420CE8091560190915701892BC9
:100D000009F019CE61E081E090E00E94AA00D09342
:100D10006901C093680110923B0110923C010BCE17
:100D2000219709F008CE80915601909157010097C4
:100D300009F079CF61E081E090E00E94AA00809103
:100D40003B01882309F4F7CDD0926901C092680174
:100D5000ACCF8091640190916501892B09F01FCE81
:100D600086E291E00E9473008823B9F08DE291E061
:100D70000E947300882389F0809156019091570159
:100D8000029709F0D8CD60E083E090E00E94AA00CD
:100D90001092690110926801BECF239709F0CBCD64
:100DA000113009F0C8CDC0915601D0915701C23021
:100DB000D10509F0C0CD60E083E090E00E94AA0078
:100DC000D0936901C09368018BCF029709F0DFCD02
:100DD00060E083E090E00E94AA00CFCD83B1897FDC
:100DE00083B933CE20914A01222309F467CE409182
:100DF0004B0150914C0160914D0170914E01841B4B
:100E0000950BA60BB70B88389341A105B10508F4E3
:100E100055CE10924A01A99851CE039709F064CE9D
:100E200010925701109256015BCED99A0E946A0027
:100E300044EB43BD85B5806385BD81E09091610140
:100E4000911180E080936101809162019091630132
:100E5000039709F05AC088EE93E0B0E0A0E040911B
:100E600058015091590160915A0170915B01841AA7
:100E7000950AA60AB70A88169906AA06BB0620F0A4
:100E8000109260010E94670080916001882321F028
:100E900080916101811107C08091560190915701A5
:100EA0000097B1F5DB9A8091540190915501892BFF
:100EB00009F45BCC8091930190919401A0919501EC
:100EC000B091960140914F015091500160915101B4
:100ED00070915201841B950BA60BB70B0597A105CA
:100EE000B10508F442CC80915301813009F442C02D
:100EF000D0F0823009F441C0833009F440C018BA00
:100F000013C00E946A0033BC95CF88E893E1A5CF57
:100F10009C012D7F2130310511F4D99AC4CF02975D
:100F200011F6DA9AC0CF08BB809193019091940199
:100F3000A0919501B091960180934F01909350013B
:100F4000A0935101B0935201809100018823C9F010
:100F50008091530190E0019683709927809353010B
:100F60008091540190915501019790935501809380
:100F70005401FBCB52E058BBD7CF48BAD5CF58BAB3
:100F8000D3CF8091530190E00396E6CF0E943A08B8
:100F900088F09F5798F0B92F9927B751B0F0E1F03A
:100FA000660F771F881F991F1AF0BA95C9F714C0EA
:100FB000B13091F00E945408B1E008950C945408A7
:100FC000672F782F8827B85F39F0B93FCCF3869523
:100FD00077956795B395D9F73EF490958095709580
:100FE00061957F4F8F4F9F4F0895E89409C097FBFD
:100FF0003EF490958095709561957F4F8F4F9F4FF0
:101000009923A9F0F92F96E9BB279395F695879533
:1010100077956795B795F111F8CFFAF4BB0F11F4F6
:1010200060FF1BC06F5F7F4F8F4F9F4F16C088239D
:1010300011F096E911C0772321F09EE8872F762FD3
:1010400005C0662371F096E8862F70E060E02AF014
:101050009A95660F771F881FDAF7880F9695879500
:1010600097F9089557FD9058440F551F59F05F3F69
:1010700071F04795880F97FB991F61F09F3F79F0BA
:1010800087950895121613061406551FF2CF46953C
:10109000F1DF08C0161617061806991FF1CF8695BE
:1010A0007105610508940895E894BB2766277727A2
:1010B000CB0197F908950E946E080C94DF080E94F6
:1010C000D10838F00E94D80820F0952311F00C9434
:1010D000C8080C94CE0811240C9455080E943208BC
:1010E00070F3959FC1F3950F50E0551F629FF0017B
:1010F000729FBB27F00DB11D639FAA27F00DB11D94
:10110000AA1F649F6627B00DA11D661F829F22271C
:10111000B00DA11D621F739FB00DA11D621F839FA3
:10112000A00D611D221F749F3327A00D611D231F79
:10113000849F600D211D822F762F6A2F11249F57C7
:1011400050409AF0F1F088234AF0EE0FFF1FBB1FCA
:10115000661F771F881F91505040A9F79E3F510589
:1011600080F00C94C8080C9455085F3FE4F3983E57
:10117000D4F3869577956795B795F795E7959F5F33
:10118000C1F7FE2B880F911D9695879597F90895C5
:1011900097F99F6780E870E060E008959FEF80EC2A
:1011A000089500240A9416161706180609060895CD
:1011B00000240A9412161306140605060895092E33
:1011C0000394000C11F4882352F0BB0F40F4BF2BA2
:1011D00011F460FF04C06F5F7F4F8F4F9F4F0895E2
:0411E000F894FFCFB1
:0211E400010008
:00000001FF
